{
  "_format": "hh3-artifact-1",
  "contractName": "FundMe",
  "sourceName": "contracts/FundMe.sol",
  "abi": [
    {
      "inputs": [
        {
          "internalType": "uint256",
          "name": "duration",
          "type": "uint256"
        }
      ],
      "stateMutability": "nonpayable",
      "type": "constructor"
    },
    {
      "inputs": [
        {
          "internalType": "address",
          "name": "",
          "type": "address"
        }
      ],
      "name": "acctBals",
      "outputs": [
        {
          "internalType": "uint256",
          "name": "",
          "type": "uint256"
        }
      ],
      "stateMutability": "view",
      "type": "function"
    },
    {
      "inputs": [],
      "name": "fund",
      "outputs": [],
      "stateMutability": "payable",
      "type": "function"
    },
    {
      "inputs": [],
      "name": "getBalance",
      "outputs": [
        {
          "internalType": "uint256",
          "name": "",
          "type": "uint256"
        }
      ],
      "stateMutability": "view",
      "type": "function"
    },
    {
      "inputs": [],
      "name": "getChainlinkDataFeedLatestAnswer",
      "outputs": [
        {
          "internalType": "int256",
          "name": "",
          "type": "int256"
        }
      ],
      "stateMutability": "view",
      "type": "function"
    },
    {
      "inputs": [],
      "name": "isFundSuccess",
      "outputs": [
        {
          "internalType": "bool",
          "name": "",
          "type": "bool"
        }
      ],
      "stateMutability": "view",
      "type": "function"
    },
    {
      "inputs": [],
      "name": "owner",
      "outputs": [
        {
          "internalType": "address",
          "name": "",
          "type": "address"
        }
      ],
      "stateMutability": "view",
      "type": "function"
    },
    {
      "inputs": [],
      "name": "refund",
      "outputs": [],
      "stateMutability": "nonpayable",
      "type": "function"
    },
    {
      "inputs": [
        {
          "internalType": "address",
          "name": "_erc20Addr",
          "type": "address"
        }
      ],
      "name": "setErc20Addr",
      "outputs": [],
      "stateMutability": "nonpayable",
      "type": "function"
    },
    {
      "inputs": [
        {
          "internalType": "address",
          "name": "funder",
          "type": "address"
        },
        {
          "internalType": "uint256",
          "name": "newAmt",
          "type": "uint256"
        }
      ],
      "name": "setFundToAmt",
      "outputs": [],
      "stateMutability": "nonpayable",
      "type": "function"
    },
    {
      "inputs": [],
      "name": "withdrawl",
      "outputs": [],
      "stateMutability": "nonpayable",
      "type": "function"
    }
  ],
  "bytecode": "0x60c0604052662386f26fc1000060025567016345785d8a00006003556004805460ff60a01b19169055348015610033575f80fd5b5060405161097138038061097183398101604081905261005291610070565b600480546001600160a01b031916331790554260805260a052610087565b5f60208284031215610080575f80fd5b5051919050565b60805160a0516108bb6100b65f395f8181610419015261065e01525f818161043a015261067f01526108bb5ff3fe60806040526004361061008f575f3560e01c8063590e1ae311610057578063590e1ae3146101385780637632d5a91461014c5780638da5cb5b14610177578063b60d4288146101ae578063bea4dfb5146101b6575f80fd5b806312065fe01461009357806313ffff01146100b4578063318a62c2146100d55780633aedfb8b146100f45780635863b06f14610108575b5f80fd5b34801561009e575f80fd5b50475b6040519081526020015b60405180910390f35b3480156100bf575f80fd5b506100d36100ce3660046107b3565b6101ca565b005b3480156100e0575f80fd5b506100d36100ef3660046107d3565b61024b565b3480156100ff575f80fd5b506100d36102c0565b348015610113575f80fd5b5060045461012890600160a01b900460ff1681565b60405190151581526020016100ab565b348015610143575f80fd5b506100d3610414565b348015610157575f80fd5b506100a16101663660046107b3565b60016020525f908152604090205481565b348015610182575f80fd5b50600454610196906001600160a01b031681565b6040516001600160a01b0390911681526020016100ab565b6100d3610607565b3480156101c1575f80fd5b506100a1610722565b6004546001600160a01b031633146102295760405162461bcd60e51b815260206004820152601e60248201527fe58faae69c89e59088e7baa6e68ba5e69c89e88085e883bde68f90e78eb0000060448201526064015b60405180910390fd5b600580546001600160a01b0319166001600160a01b0392909216919091179055565b6005546001600160a01b031633146102a55760405162461bcd60e51b815260206004820152601e60248201527fe682a8e6b2a1e69c89e69d83e99990e8b083e794a8e6ada4e587bde695b000006044820152606401610220565b6001600160a01b039091165f90815260016020526040902055565b6004546001600160a01b0316331461031a5760405162461bcd60e51b815260206004820152601e60248201527fe58faae69c89e59088e7baa6e68ba5e69c89e88085e883bde68f90e78eb000006044820152606401610220565b60035447101561036c5760405162461bcd60e51b815260206004820152601b60248201527f42616c616e636520746f6f206c6f7720746f20776974686472617700000000006044820152606401610220565b5f33476040515f81818185875af1925050503d805f81146103a8576040519150601f19603f3d011682016040523d82523d5f602084013e6103ad565b606091505b505080915050806103ef5760405162461bcd60e51b815260206004820152600c60248201526be68f90e78eb0e5a4b1e8b4a560a01b6044820152606401610220565b50335f908152600160205260408120556004805460ff60a01b1916600160a01b179055565b61045e7f00000000000000000000000000000000000000000000000000000000000000007f00000000000000000000000000000000000000000000000000000000000000006107fb565b4210156104b75760405162461bcd60e51b815260206004820152602160248201527fe99481e5ae9ae69c9fe69caae7bb93e69d9fefbc8ce697a0e6b395e98080e6ac6044820152605f60f91b6064820152608401610220565b60035447106105085760405162461bcd60e51b815260206004820152601b60248201527fe98791e9a29de5b7b2e7bb8fe588b0e8bebee79baee6a087e580bc00000000006044820152606401610220565b335f908152600160205260409020546105635760405162461bcd60e51b815260206004820152601860248201527fe69caae69fa5e8afa2e588b0e58585e580bce8aeb0e5bd9500000000000000006044820152606401610220565b335f818152600160205260408082205490519192918381818185875af1925050503d805f81146105ae576040519150601f19603f3d011682016040523d82523d5f602084013e6105b3565b606091505b505080915050806105f55760405162461bcd60e51b815260206004820152600c60248201526be98080e6acbee5a4b1e8b4a560a01b6044820152606401610220565b50335f90815260016020526040812055565b6002543410156106595760405162461bcd60e51b815260206004820152601860248201527f46756e64696e6720616d6f756e7420746f6f20736d616c6c00000000000000006044820152606401610220565b6106a37f00000000000000000000000000000000000000000000000000000000000000007f00000000000000000000000000000000000000000000000000000000000000006107fb565b42106106fd5760405162461bcd60e51b8152602060048201526024808201527fe99481e5ae9ae69c9fe5b7b2e7bb8fe7bb93e69d9fefbc8ce697a0e6b395e5856044820152632179602f60e21b6064820152608401610220565b335f908152600160205260408120805434929061071b9084906107fb565b9091555050565b5f805460408051633fabe5a360e21b8152905183926001600160a01b03169163feaf968c9160048083019260a09291908290030181865afa158015610769573d5f803e3d5ffd5b505050506040513d601f19601f8201168201806040525081019061078d9190610839565b509195945050505050565b80356001600160a01b03811681146107ae575f80fd5b919050565b5f602082840312156107c3575f80fd5b6107cc82610798565b9392505050565b5f80604083850312156107e4575f80fd5b6107ed83610798565b946020939093013593505050565b8082018082111561081a57634e487b7160e01b5f52601160045260245ffd5b92915050565b805169ffffffffffffffffffff811681146107ae575f80fd5b5f805f805f60a0868803121561084d575f80fd5b61085686610820565b945060208601519350604086015192506060860151915061087960808701610820565b9050929550929590935056fea2646970667358221220d6b9f7a88460e0f1e02a72b2201c76ca7f0b29ede63783dfa849f3f952697cd964736f6c63430008140033",
  "linkReferences": {},
  "deployedLinkReferences": {},
  "immutableReferences": {
    "74": [
      {
        "length": 32,
        "start": 1082
      },
      {
        "length": 32,
        "start": 1663
      }
    ],
    "76": [
      {
        "length": 32,
        "start": 1049
      },
      {
        "length": 32,
        "start": 1630
      }
    ]
  },
  "inputSourceName": "project/contracts/FundMe.sol",
  "buildInfoId": "solc-0_8_20-0b9d22f870e58d6d34b852a10f178ce7fe3295aa"
}